:03000000020800F3
:0C080000787FE4F6D8FD758109020847F6
:04096E00020800017A
:030003000209737C
:03097300B291320C
:03000B00020917D0
:10091700C0E0C0F0C0D075D000C000C004C005C0A2
:1009270006C0070509E50970020508AE08FF7C0146
:100937007D9012088CED4C7002B2A5D007D006D07E
:0C09470005D004D000D0D0D0F0D0E032B9
:10095300D297C290C2A5C291758902E4F58C75A89D
:0B09630083D28CD288A297929080FA79
:10080C00020953E493A3F8E493A34003F68001F2A6
:10081C0008DFF48029E493A3F85407240CC8C333ED
:10082C00C4540F4420C8834004F456800146F6DFBC
:10083C00E4800B010204081020408090096EE47ED5
:10084C00019360BCA3FF543F30E509541FFEE493B1
:10085C00A360010ECF54C025E060A840B8E493A378
:10086C00FAE493A3F8E493A3C8C582C8CAC583CAA3
:10087C00F0A3C8C582C8CAC583CADFE9DEE780BE5B
:010972000084
:10088C00C2D5EC30E709B2D5E4C39DFDE49CFCEE87
:10089C0030E715B2D5E4C39FFFE49EFE1208C2C335
:1008AC00E49DFDE49CFC80031208C230D507C3E430
:0608BC009FFFE49EFE22F6
:1008C200BC000BBE0029EF8DF084FFADF022E4CC1A
:1008D200F875F008EF2FFFEE33FEEC33FCEE9DECE3
:1008E200984005FCEE9DFE0FD5F0E9E4CEFD22ED29
:1008F200F8F5F0EE8420D21CFEADF075F008EF2F73
:10090200FFED33FD4007985006D5F0F222C398FD63
:050912000FD5F0EA2200
:00000001FF
